{
  "contractName": "MyNFT",
  "abi": [
    {
      "inputs": [],
      "stateMutability": "nonpayable",
      "type": "constructor"
    },
    {
      "anonymous": false,
      "inputs": [
        {
          "indexed": true,
          "internalType": "address",
          "name": "owner",
          "type": "address"
        },
        {
          "indexed": true,
          "internalType": "address",
          "name": "approved",
          "type": "address"
        },
        {
          "indexed": true,
          "internalType": "uint256",
          "name": "tokenId",
          "type": "uint256"
        }
      ],
      "name": "Approval",
      "type": "event"
    },
    {
      "anonymous": false,
      "inputs": [
        {
          "indexed": true,
          "internalType": "address",
          "name": "owner",
          "type": "address"
        },
        {
          "indexed": true,
          "internalType": "address",
          "name": "operator",
          "type": "address"
        },
        {
          "indexed": false,
          "internalType": "bool",
          "name": "approved",
          "type": "bool"
        }
      ],
      "name": "ApprovalForAll",
      "type": "event"
    },
    {
      "anonymous": false,
      "inputs": [
        {
          "indexed": true,
          "internalType": "address",
          "name": "from",
          "type": "address"
        },
        {
          "indexed": true,
          "internalType": "address",
          "name": "to",
          "type": "address"
        },
        {
          "indexed": true,
          "internalType": "uint256",
          "name": "tokenId",
          "type": "uint256"
        }
      ],
      "name": "Transfer",
      "type": "event"
    },
    {
      "inputs": [
        {
          "internalType": "address",
          "name": "to",
          "type": "address"
        },
        {
          "internalType": "uint256",
          "name": "tokenId",
          "type": "uint256"
        }
      ],
      "name": "approve",
      "outputs": [],
      "stateMutability": "nonpayable",
      "type": "function"
    },
    {
      "inputs": [
        {
          "internalType": "address",
          "name": "owner",
          "type": "address"
        }
      ],
      "name": "balanceOf",
      "outputs": [
        {
          "internalType": "uint256",
          "name": "",
          "type": "uint256"
        }
      ],
      "stateMutability": "view",
      "type": "function",
      "constant": true
    },
    {
      "inputs": [
        {
          "internalType": "uint256",
          "name": "tokenId",
          "type": "uint256"
        }
      ],
      "name": "getApproved",
      "outputs": [
        {
          "internalType": "address",
          "name": "",
          "type": "address"
        }
      ],
      "stateMutability": "view",
      "type": "function",
      "constant": true
    },
    {
      "inputs": [
        {
          "internalType": "address",
          "name": "owner",
          "type": "address"
        },
        {
          "internalType": "address",
          "name": "operator",
          "type": "address"
        }
      ],
      "name": "isApprovedForAll",
      "outputs": [
        {
          "internalType": "bool",
          "name": "",
          "type": "bool"
        }
      ],
      "stateMutability": "view",
      "type": "function",
      "constant": true
    },
    {
      "inputs": [
        {
          "internalType": "uint256",
          "name": "tokenId",
          "type": "uint256"
        }
      ],
      "name": "ownerOf",
      "outputs": [
        {
          "internalType": "address",
          "name": "",
          "type": "address"
        }
      ],
      "stateMutability": "view",
      "type": "function",
      "constant": true
    },
    {
      "inputs": [
        {
          "internalType": "address",
          "name": "from",
          "type": "address"
        },
        {
          "internalType": "address",
          "name": "to",
          "type": "address"
        },
        {
          "internalType": "uint256",
          "name": "tokenId",
          "type": "uint256"
        }
      ],
      "name": "safeTransferFrom",
      "outputs": [],
      "stateMutability": "nonpayable",
      "type": "function"
    },
    {
      "inputs": [
        {
          "internalType": "address",
          "name": "from",
          "type": "address"
        },
        {
          "internalType": "address",
          "name": "to",
          "type": "address"
        },
        {
          "internalType": "uint256",
          "name": "tokenId",
          "type": "uint256"
        },
        {
          "internalType": "bytes",
          "name": "_data",
          "type": "bytes"
        }
      ],
      "name": "safeTransferFrom",
      "outputs": [],
      "stateMutability": "nonpayable",
      "type": "function"
    },
    {
      "inputs": [
        {
          "internalType": "address",
          "name": "operator",
          "type": "address"
        },
        {
          "internalType": "bool",
          "name": "approved",
          "type": "bool"
        }
      ],
      "name": "setApprovalForAll",
      "outputs": [],
      "stateMutability": "nonpayable",
      "type": "function"
    },
    {
      "inputs": [
        {
          "internalType": "bytes4",
          "name": "interfaceId",
          "type": "bytes4"
        }
      ],
      "name": "supportsInterface",
      "outputs": [
        {
          "internalType": "bool",
          "name": "",
          "type": "bool"
        }
      ],
      "stateMutability": "view",
      "type": "function",
      "constant": true
    },
    {
      "inputs": [
        {
          "internalType": "address",
          "name": "from",
          "type": "address"
        },
        {
          "internalType": "address",
          "name": "to",
          "type": "address"
        },
        {
          "internalType": "uint256",
          "name": "tokenId",
          "type": "uint256"
        }
      ],
      "name": "transferFrom",
      "outputs": [],
      "stateMutability": "nonpayable",
      "type": "function"
    },
    {
      "inputs": [],
      "name": "name",
      "outputs": [
        {
          "internalType": "string",
          "name": "",
          "type": "string"
        }
      ],
      "stateMutability": "view",
      "type": "function",
      "constant": true
    },
    {
      "inputs": [],
      "name": "symbol",
      "outputs": [
        {
          "internalType": "string",
          "name": "",
          "type": "string"
        }
      ],
      "stateMutability": "view",
      "type": "function",
      "constant": true
    },
    {
      "inputs": [
        {
          "internalType": "uint256",
          "name": "tokenId",
          "type": "uint256"
        }
      ],
      "name": "tokenURI",
      "outputs": [
        {
          "internalType": "string",
          "name": "",
          "type": "string"
        }
      ],
      "stateMutability": "view",
      "type": "function",
      "constant": true
    },
    {
      "inputs": [
        {
          "internalType": "string",
          "name": "setURI",
          "type": "string"
        }
      ],
      "name": "setBaseURI",
      "outputs": [
        {
          "internalType": "string",
          "name": "",
          "type": "string"
        }
      ],
      "stateMutability": "nonpayable",
      "type": "function"
    },
    {
      "inputs": [
        {
          "internalType": "uint256",
          "name": "setPrice",
          "type": "uint256"
        }
      ],
      "name": "startSales",
      "outputs": [],
      "stateMutability": "nonpayable",
      "type": "function"
    },
    {
      "inputs": [
        {
          "internalType": "uint256",
          "name": "newPrice",
          "type": "uint256"
        }
      ],
      "name": "newPriceSet",
      "outputs": [],
      "stateMutability": "nonpayable",
      "type": "function"
    },
    {
      "inputs": [],
      "name": "buyNFT",
      "outputs": [],
      "stateMutability": "payable",
      "type": "function",
      "payable": true
    }
  ],
  "bytecode": "0x60806040523480156200001157600080fd5b506040518060400160405280600681526020017f4d79204e465400000000000000000000000000000000000000000000000000008152506040518060400160405280600381526020017f4d4e54000000000000000000000000000000000000000000000000000000000081525081600090805190602001906200009692919062000101565b508060019080519060200190620000af92919062000101565b50505033600c60006101000a81548173ffffffffffffffffffffffffffffffffffffffff021916908373ffffffffffffffffffffffffffffffffffffffff1602179055506003600a8190555062000216565b8280546200010f90620001b1565b90600052602060002090601f0160209004810192826200013357600085556200017f565b82601f106200014e57805160ff19168380011785556200017f565b828001600101855582156200017f579182015b828111156200017e57825182559160200191906001019062000161565b5b5090506200018e919062000192565b5090565b5b80821115620001ad57600081600090555060010162000193565b5090565b60006002820490506001821680620001ca57607f821691505b60208210811415620001e157620001e0620001e7565b5b50919050565b7f4e487b7100000000000000000000000000000000000000000000000000000000600052602260045260246000fd5b612f5880620002266000396000f3fe6080604052600436106100fe5760003560e01c80636352211e11610095578063b88d4fde11610064578063b88d4fde14610357578063bff29cee14610380578063c87b56dd1461038a578063e985e9c5146103c7578063fe730bc014610404576100fe565b80636352211e1461028957806370a08231146102c657806395d89b4114610303578063a22cb4651461032e576100fe565b806323b872dd116100d157806323b872dd146101d157806342842e0e146101fa57806348e4245d1461022357806355f804b31461024c576100fe565b806301ffc9a71461010357806306fdde0314610140578063081812fc1461016b578063095ea7b3146101a8575b600080fd5b34801561010f57600080fd5b5061012a60048036038101906101259190611e99565b61042d565b60405161013791906127b7565b60405180910390f35b34801561014c57600080fd5b5061015561050f565b60405161016291906127d2565b60405180910390f35b34801561017757600080fd5b50610192600480360381019061018d9190611f2c565b6105a1565b60405161019f9190612750565b60405180910390f35b3480156101b457600080fd5b506101cf60048036038101906101ca9190611e5d565b610626565b005b3480156101dd57600080fd5b506101f860048036038101906101f39190611d57565b61073e565b005b34801561020657600080fd5b50610221600480360381019061021c9190611d57565b61079e565b005b34801561022f57600080fd5b5061024a60048036038101906102459190611f2c565b6107be565b005b34801561025857600080fd5b50610273600480360381019061026e9190611eeb565b610889565b60405161028091906127d2565b60405180910390f35b34801561029557600080fd5b506102b060048036038101906102ab9190611f2c565b610931565b6040516102bd9190612750565b60405180910390f35b3480156102d257600080fd5b506102ed60048036038101906102e89190611cf2565b6109e3565b6040516102fa9190612a54565b60405180910390f35b34801561030f57600080fd5b50610318610a9b565b60405161032591906127d2565b60405180910390f35b34801561033a57600080fd5b5061035560048036038101906103509190611e21565b610b2d565b005b34801561036357600080fd5b5061037e60048036038101906103799190611da6565b610cae565b005b610388610d10565b005b34801561039657600080fd5b506103b160048036038101906103ac9190611f2c565b610e70565b6040516103be91906127d2565b60405180910390f35b3480156103d357600080fd5b506103ee60048036038101906103e99190611d1b565b610f18565b6040516103fb91906127b7565b60405180910390f35b34801561041057600080fd5b5061042b60048036038101906104269190611f2c565b610fac565b005b60007f80ac58cd000000000000000000000000000000000000000000000000000000007bffffffffffffffffffffffffffffffffffffffffffffffffffffffff1916827bffffffffffffffffffffffffffffffffffffffffffffffffffffffff191614806104f857507f5b5e139f000000000000000000000000000000000000000000000000000000007bffffffffffffffffffffffffffffffffffffffffffffffffffffffff1916827bffffffffffffffffffffffffffffffffffffffffffffffffffffffff1916145b80610508575061050782611046565b5b9050919050565b60606000805461051e90612d4d565b80601f016020809104026020016040519081016040528092919081815260200182805461054a90612d4d565b80156105975780601f1061056c57610100808354040283529160200191610597565b820191906000526020600020905b81548152906001019060200180831161057a57829003601f168201915b5050505050905090565b60006105ac826110b0565b6105eb576040517f08c379a00000000000000000000000000000000000000000000000000000000081526004016105e290612994565b60405180910390fd5b6004600083815260200190815260200160002060009054906101000a900473ffffffffffffffffffffffffffffffffffffffff169050919050565b600061063182610931565b90508073ffffffffffffffffffffffffffffffffffffffff168373ffffffffffffffffffffffffffffffffffffffff1614156106a2576040517f08c379a000000000000000000000000000000000000000000000000000000000815260040161069990612a14565b60405180910390fd5b8073ffffffffffffffffffffffffffffffffffffffff166106c161111c565b73ffffffffffffffffffffffffffffffffffffffff1614806106f057506106ef816106ea61111c565b610f18565b5b61072f576040517f08c379a0000000000000000000000000000000000000000000000000000000008152600401610726906128d4565b60405180910390fd5b6107398383611124565b505050565b61074f61074961111c565b826111dd565b61078e576040517f08c379a000000000000000000000000000000000000000000000000000000000815260040161078590612a34565b60405180910390fd5b6107998383836112bb565b505050565b6107b983838360405180602001604052806000815250610cae565b505050565b600c60009054906101000a900473ffffffffffffffffffffffffffffffffffffffff1673ffffffffffffffffffffffffffffffffffffffff163373ffffffffffffffffffffffffffffffffffffffff161461084e576040517f08c379a0000000000000000000000000000000000000000000000000000000008152600401610845906129d4565b60405180910390fd5b4260068190555062278d006006546108669190612b58565b600781905550670de0b6b3a7640000816108809190612bdf565b60088190555050565b606081600b90805190602001906108a1929190611b16565b80546108ac90612d4d565b80601f01602080910402602001604051908101604052809291908181526020018280546108d890612d4d565b80156109255780601f106108fa57610100808354040283529160200191610925565b820191906000526020600020905b81548152906001019060200180831161090857829003601f168201915b50505050509050919050565b6000806002600084815260200190815260200160002060009054906101000a900473ffffffffffffffffffffffffffffffffffffffff169050600073ffffffffffffffffffffffffffffffffffffffff168173ffffffffffffffffffffffffffffffffffffffff1614156109da576040517f08c379a00000000000000000000000000000000000000000000000000000000081526004016109d190612934565b60405180910390fd5b80915050919050565b60008073ffffffffffffffffffffffffffffffffffffffff168273ffffffffffffffffffffffffffffffffffffffff161415610a54576040517f08c379a0000000000000000000000000000000000000000000000000000000008152600401610a4b90612914565b60405180910390fd5b600360008373ffffffffffffffffffffffffffffffffffffffff1673ffffffffffffffffffffffffffffffffffffffff168152602001908152602001600020549050919050565b606060018054610aaa90612d4d565b80601f0160208091040260200160405190810160405280929190818152602001828054610ad690612d4d565b8015610b235780601f10610af857610100808354040283529160200191610b23565b820191906000526020600020905b815481529060010190602001808311610b0657829003601f168201915b5050505050905090565b610b3561111c565b73ffffffffffffffffffffffffffffffffffffffff168273ffffffffffffffffffffffffffffffffffffffff161415610ba3576040517f08c379a0000000000000000000000000000000000000000000000000000000008152600401610b9a90612874565b60405180910390fd5b8060056000610bb061111c565b73ffffffffffffffffffffffffffffffffffffffff1673ffffffffffffffffffffffffffffffffffffffff16815260200190815260200160002060008473ffffffffffffffffffffffffffffffffffffffff1673ffffffffffffffffffffffffffffffffffffffff16815260200190815260200160002060006101000a81548160ff0219169083151502179055508173ffffffffffffffffffffffffffffffffffffffff16610c5d61111c565b73ffffffffffffffffffffffffffffffffffffffff167f17307eab39ab6107e8899845ad3d59bd9653f200f220920489ca2b5937696c3183604051610ca291906127b7565b60405180910390a35050565b610cbf610cb961111c565b836111dd565b610cfe576040517f08c379a0000000000000000000000000000000000000000000000000000000008152600401610cf590612a34565b60405180910390fd5b610d0a84848484611517565b50505050565b6006544210158015610d255750600060065414155b610d64576040517f08c379a0000000000000000000000000000000000000000000000000000000008152600401610d5b906128f4565b60405180910390fd5b600754421115610da9576040517f08c379a0000000000000000000000000000000000000000000000000000000008152600401610da090612974565b60405180910390fd5b6000600a5411610dee576040517f08c379a0000000000000000000000000000000000000000000000000000000008152600401610de5906127f4565b60405180910390fd5b6008543414610e32576040517f08c379a0000000000000000000000000000000000000000000000000000000008152600401610e2990612894565b60405180910390fd5b60096000815480929190610e4590612d7f565b9190505550610e5633600954611573565b600a6000815480929190610e6990612d23565b9190505550565b6060610e7b826110b0565b610eba576040517f08c379a0000000000000000000000000000000000000000000000000000000008152600401610eb1906129f4565b60405180910390fd5b6000600b8054610ec990612d4d565b905011610ee55760405180602001604052806000815250610f11565b600b610ef083611591565b604051602001610f0192919061272c565b6040516020818303038152906040525b9050919050565b6000600560008473ffffffffffffffffffffffffffffffffffffffff1673ffffffffffffffffffffffffffffffffffffffff16815260200190815260200160002060008373ffffffffffffffffffffffffffffffffffffffff1673ffffffffffffffffffffffffffffffffffffffff16815260200190815260200160002060009054906101000a900460ff16905092915050565b600c60009054906101000a900473ffffffffffffffffffffffffffffffffffffffff1673ffffffffffffffffffffffffffffffffffffffff163373ffffffffffffffffffffffffffffffffffffffff161461103c576040517f08c379a0000000000000000000000000000000000000000000000000000000008152600401611033906129d4565b60405180910390fd5b8060088190555050565b60007f01ffc9a7000000000000000000000000000000000000000000000000000000007bffffffffffffffffffffffffffffffffffffffffffffffffffffffff1916827bffffffffffffffffffffffffffffffffffffffffffffffffffffffff1916149050919050565b60008073ffffffffffffffffffffffffffffffffffffffff166002600084815260200190815260200160002060009054906101000a900473ffffffffffffffffffffffffffffffffffffffff1673ffffffffffffffffffffffffffffffffffffffff1614159050919050565b600033905090565b816004600083815260200190815260200160002060006101000a81548173ffffffffffffffffffffffffffffffffffffffff021916908373ffffffffffffffffffffffffffffffffffffffff160217905550808273ffffffffffffffffffffffffffffffffffffffff1661119783610931565b73ffffffffffffffffffffffffffffffffffffffff167f8c5be1e5ebec7d5bd14f71427d1e84f3dd0314c0f7b2291e5b200ac8c7c3b92560405160405180910390a45050565b60006111e8826110b0565b611227576040517f08c379a000000000000000000000000000000000000000000000000000000000815260040161121e906128b4565b60405180910390fd5b600061123283610931565b90508073ffffffffffffffffffffffffffffffffffffffff168473ffffffffffffffffffffffffffffffffffffffff1614806112a157508373ffffffffffffffffffffffffffffffffffffffff16611289846105a1565b73ffffffffffffffffffffffffffffffffffffffff16145b806112b257506112b18185610f18565b5b91505092915050565b8273ffffffffffffffffffffffffffffffffffffffff166112db82610931565b73ffffffffffffffffffffffffffffffffffffffff1614611331576040517f08c379a0000000000000000000000000000000000000000000000000000000008152600401611328906129b4565b60405180910390fd5b600073ffffffffffffffffffffffffffffffffffffffff168273ffffffffffffffffffffffffffffffffffffffff1614156113a1576040517f08c379a000000000000000000000000000000000000000000000000000000000815260040161139890612854565b60405180910390fd5b6113ac83838361173e565b6113b7600082611124565b6001600360008573ffffffffffffffffffffffffffffffffffffffff1673ffffffffffffffffffffffffffffffffffffffff16815260200190815260200160002060008282546114079190612c39565b925050819055506001600360008473ffffffffffffffffffffffffffffffffffffffff1673ffffffffffffffffffffffffffffffffffffffff168152602001908152602001600020600082825461145e9190612b58565b92505081905550816002600083815260200190815260200160002060006101000a81548173ffffffffffffffffffffffffffffffffffffffff021916908373ffffffffffffffffffffffffffffffffffffffff160217905550808273ffffffffffffffffffffffffffffffffffffffff168473ffffffffffffffffffffffffffffffffffffffff167fddf252ad1be2c89b69c2b068fc378daa952ba7f163c4a11628f55a4df523b3ef60405160405180910390a4505050565b6115228484846112bb565b61152e84848484611743565b61156d576040517f08c379a000000000000000000000000000000000000000000000000000000000815260040161156490612814565b60405180910390fd5b50505050565b61158d8282604051806020016040528060008152506118da565b5050565b606060008214156115d9576040518060400160405280600181526020017f30000000000000000000000000000000000000000000000000000000000000008152509050611739565b600082905060005b6000821461160b5780806115f490612d7f565b915050600a826116049190612bae565b91506115e1565b60008167ffffffffffffffff81111561164d577f4e487b7100000000000000000000000000000000000000000000000000000000600052604160045260246000fd5b6040519080825280601f01601f19166020018201604052801561167f5781602001600182028036833780820191505090505b5090505b60008514611732576001826116989190612c39565b9150600a856116a79190612dc8565b60306116b39190612b58565b60f81b8183815181106116ef577f4e487b7100000000000000000000000000000000000000000000000000000000600052603260045260246000fd5b60200101907effffffffffffffffffffffffffffffffffffffffffffffffffffffffffffff1916908160001a905350600a8561172b9190612bae565b9450611683565b8093505050505b919050565b505050565b60006117648473ffffffffffffffffffffffffffffffffffffffff16611935565b156118cd578373ffffffffffffffffffffffffffffffffffffffff1663150b7a0261178d61111c565b8786866040518563ffffffff1660e01b81526004016117af949392919061276b565b602060405180830381600087803b1580156117c957600080fd5b505af19250505080156117fa57506040513d601f19601f820116820180604052508101906117f79190611ec2565b60015b61187d573d806000811461182a576040519150601f19603f3d011682016040523d82523d6000602084013e61182f565b606091505b50600081511415611875576040517f08c379a000000000000000000000000000000000000000000000000000000000815260040161186c90612814565b60405180910390fd5b805181602001fd5b63150b7a0260e01b7bffffffffffffffffffffffffffffffffffffffffffffffffffffffff1916817bffffffffffffffffffffffffffffffffffffffffffffffffffffffff1916149150506118d2565b600190505b949350505050565b6118e48383611948565b6118f16000848484611743565b611930576040517f08c379a000000000000000000000000000000000000000000000000000000000815260040161192790612814565b60405180910390fd5b505050565b600080823b905060008111915050919050565b600073ffffffffffffffffffffffffffffffffffffffff168273ffffffffffffffffffffffffffffffffffffffff1614156119b8576040517f08c379a00000000000000000000000000000000000000000000000000000000081526004016119af90612954565b60405180910390fd5b6119c1816110b0565b15611a01576040517f08c379a00000000000000000000000000000000000000000000000000000000081526004016119f890612834565b60405180910390fd5b611a0d6000838361173e565b6001600360008473ffffffffffffffffffffffffffffffffffffffff1673ffffffffffffffffffffffffffffffffffffffff1681526020019081526020016000206000828254611a5d9190612b58565b92505081905550816002600083815260200190815260200160002060006101000a81548173ffffffffffffffffffffffffffffffffffffffff021916908373ffffffffffffffffffffffffffffffffffffffff160217905550808273ffffffffffffffffffffffffffffffffffffffff16600073ffffffffffffffffffffffffffffffffffffffff167fddf252ad1be2c89b69c2b068fc378daa952ba7f163c4a11628f55a4df523b3ef60405160405180910390a45050565b828054611b2290612d4d565b90600052602060002090601f016020900481019282611b445760008555611b8b565b82601f10611b5d57805160ff1916838001178555611b8b565b82800160010185558215611b8b579182015b82811115611b8a578251825591602001919060010190611b6f565b5b509050611b989190611b9c565b5090565b5b80821115611bb5576000816000905550600101611b9d565b5090565b6000611bcc611bc784612aa0565b612a6f565b905082815260208101848484011115611be457600080fd5b611bef848285612ce1565b509392505050565b6000611c0a611c0584612ad0565b612a6f565b905082815260208101848484011115611c2257600080fd5b611c2d848285612ce1565b509392505050565b600081359050611c4481612ec6565b92915050565b600081359050611c5981612edd565b92915050565b600081359050611c6e81612ef4565b92915050565b600081519050611c8381612ef4565b92915050565b600082601f830112611c9a57600080fd5b8135611caa848260208601611bb9565b91505092915050565b600082601f830112611cc457600080fd5b8135611cd4848260208601611bf7565b91505092915050565b600081359050611cec81612f0b565b92915050565b600060208284031215611d0457600080fd5b6000611d1284828501611c35565b91505092915050565b60008060408385031215611d2e57600080fd5b6000611d3c85828601611c35565b9250506020611d4d85828601611c35565b9150509250929050565b600080600060608486031215611d6c57600080fd5b6000611d7a86828701611c35565b9350506020611d8b86828701611c35565b9250506040611d9c86828701611cdd565b9150509250925092565b60008060008060808587031215611dbc57600080fd5b6000611dca87828801611c35565b9450506020611ddb87828801611c35565b9350506040611dec87828801611cdd565b925050606085013567ffffffffffffffff811115611e0957600080fd5b611e1587828801611c89565b91505092959194509250565b60008060408385031215611e3457600080fd5b6000611e4285828601611c35565b9250506020611e5385828601611c4a565b9150509250929050565b60008060408385031215611e7057600080fd5b6000611e7e85828601611c35565b9250506020611e8f85828601611cdd565b9150509250929050565b600060208284031215611eab57600080fd5b6000611eb984828501611c5f565b91505092915050565b600060208284031215611ed457600080fd5b6000611ee284828501611c74565b91505092915050565b600060208284031215611efd57600080fd5b600082013567ffffffffffffffff811115611f1757600080fd5b611f2384828501611cb3565b91505092915050565b600060208284031215611f3e57600080fd5b6000611f4c84828501611cdd565b91505092915050565b611f5e81612c6d565b82525050565b611f6d81612c7f565b82525050565b6000611f7e82612b15565b611f888185612b2b565b9350611f98818560208601612cf0565b611fa181612eb5565b840191505092915050565b6000611fb782612b20565b611fc18185612b3c565b9350611fd1818560208601612cf0565b611fda81612eb5565b840191505092915050565b6000611ff082612b20565b611ffa8185612b4d565b935061200a818560208601612cf0565b80840191505092915050565b6000815461202381612d4d565b61202d8186612b4d565b9450600182166000811461204857600181146120595761208c565b60ff1983168652818601935061208c565b61206285612b00565b60005b8381101561208457815481890152600182019150602081019050612065565b838801955050505b50505092915050565b60006120a2600e83612b3c565b91507f204e46547320536f6c64206f75740000000000000000000000000000000000006000830152602082019050919050565b60006120e2603283612b3c565b91507f4552433732313a207472616e7366657220746f206e6f6e20455243373231526560008301527f63656976657220696d706c656d656e74657200000000000000000000000000006020830152604082019050919050565b6000612148601c83612b3c565b91507f4552433732313a20746f6b656e20616c7265616479206d696e746564000000006000830152602082019050919050565b6000612188602483612b3c565b91507f4552433732313a207472616e7366657220746f20746865207a65726f2061646460008301527f72657373000000000000000000000000000000000000000000000000000000006020830152604082019050919050565b60006121ee601983612b3c565b91507f4552433732313a20617070726f766520746f2063616c6c6572000000000000006000830152602082019050919050565b600061222e603183612b3c565b91507f20506c7320506179206578616374205072696365207c20796f752063616e206260008301527f75792031204e4654207065722063616c6c0000000000000000000000000000006020830152604082019050919050565b6000612294602c83612b3c565b91507f4552433732313a206f70657261746f7220717565727920666f72206e6f6e657860008301527f697374656e7420746f6b656e00000000000000000000000000000000000000006020830152604082019050919050565b60006122fa603883612b3c565b91507f4552433732313a20617070726f76652063616c6c6572206973206e6f74206f7760008301527f6e6572206e6f7220617070726f76656420666f7220616c6c00000000000000006020830152604082019050919050565b6000612360601683612b3c565b91507f53616c657320686173206e6f74207374617274656420000000000000000000006000830152602082019050919050565b60006123a0602a83612b3c565b91507f4552433732313a2062616c616e636520717565727920666f7220746865207a6560008301527f726f2061646472657373000000000000000000000000000000000000000000006020830152604082019050919050565b6000612406602983612b3c565b91507f4552433732313a206f776e657220717565727920666f72206e6f6e657869737460008301527f656e7420746f6b656e00000000000000000000000000000000000000000000006020830152604082019050919050565b600061246c602083612b3c565b91507f4552433732313a206d696e7420746f20746865207a65726f20616464726573736000830152602082019050919050565b60006124ac600f83612b3c565b91507f53616c65732068617320456e64656400000000000000000000000000000000006000830152602082019050919050565b60006124ec602c83612b3c565b91507f4552433732313a20617070726f76656420717565727920666f72206e6f6e657860008301527f697374656e7420746f6b656e00000000000000000000000000000000000000006020830152604082019050919050565b6000612552602983612b3c565b91507f4552433732313a207472616e73666572206f6620746f6b656e2074686174206960008301527f73206e6f74206f776e00000000000000000000000000000000000000000000006020830152604082019050919050565b60006125b8602083612b3c565b91507f6f6e6c79204f6e77657220697320417574686f72697a656420746f2063616c6c6000830152602082019050919050565b60006125f8602f83612b3c565b91507f4552433732314d657461646174613a2055524920717565727920666f72206e6f60008301527f6e6578697374656e7420746f6b656e00000000000000000000000000000000006020830152604082019050919050565b600061265e602183612b3c565b91507f4552433732313a20617070726f76616c20746f2063757272656e74206f776e6560008301527f72000000000000000000000000000000000000000000000000000000000000006020830152604082019050919050565b60006126c4603183612b3c565b91507f4552433732313a207472616e736665722063616c6c6572206973206e6f74206f60008301527f776e6572206e6f7220617070726f7665640000000000000000000000000000006020830152604082019050919050565b61272681612cd7565b82525050565b60006127388285612016565b91506127448284611fe5565b91508190509392505050565b60006020820190506127656000830184611f55565b92915050565b60006080820190506127806000830187611f55565b61278d6020830186611f55565b61279a604083018561271d565b81810360608301526127ac8184611f73565b905095945050505050565b60006020820190506127cc6000830184611f64565b92915050565b600060208201905081810360008301526127ec8184611fac565b905092915050565b6000602082019050818103600083015261280d81612095565b9050919050565b6000602082019050818103600083015261282d816120d5565b9050919050565b6000602082019050818103600083015261284d8161213b565b9050919050565b6000602082019050818103600083015261286d8161217b565b9050919050565b6000602082019050818103600083015261288d816121e1565b9050919050565b600060208201905081810360008301526128ad81612221565b9050919050565b600060208201905081810360008301526128cd81612287565b9050919050565b600060208201905081810360008301526128ed816122ed565b9050919050565b6000602082019050818103600083015261290d81612353565b9050919050565b6000602082019050818103600083015261292d81612393565b9050919050565b6000602082019050818103600083015261294d816123f9565b9050919050565b6000602082019050818103600083015261296d8161245f565b9050919050565b6000602082019050818103600083015261298d8161249f565b9050919050565b600060208201905081810360008301526129ad816124df565b9050919050565b600060208201905081810360008301526129cd81612545565b9050919050565b600060208201905081810360008301526129ed816125ab565b9050919050565b60006020820190508181036000830152612a0d816125eb565b9050919050565b60006020820190508181036000830152612a2d81612651565b9050919050565b60006020820190508181036000830152612a4d816126b7565b9050919050565b6000602082019050612a69600083018461271d565b92915050565b6000604051905081810181811067ffffffffffffffff82111715612a9657612a95612e86565b5b8060405250919050565b600067ffffffffffffffff821115612abb57612aba612e86565b5b601f19601f8301169050602081019050919050565b600067ffffffffffffffff821115612aeb57612aea612e86565b5b601f19601f8301169050602081019050919050565b60008190508160005260206000209050919050565b600081519050919050565b600081519050919050565b600082825260208201905092915050565b600082825260208201905092915050565b600081905092915050565b6000612b6382612cd7565b9150612b6e83612cd7565b9250827fffffffffffffffffffffffffffffffffffffffffffffffffffffffffffffffff03821115612ba357612ba2612df9565b5b828201905092915050565b6000612bb982612cd7565b9150612bc483612cd7565b925082612bd457612bd3612e28565b5b828204905092915050565b6000612bea82612cd7565b9150612bf583612cd7565b9250817fffffffffffffffffffffffffffffffffffffffffffffffffffffffffffffffff0483118215151615612c2e57612c2d612df9565b5b828202905092915050565b6000612c4482612cd7565b9150612c4f83612cd7565b925082821015612c6257612c61612df9565b5b828203905092915050565b6000612c7882612cb7565b9050919050565b60008115159050919050565b60007fffffffff0000000000000000000000000000000000000000000000000000000082169050919050565b600073ffffffffffffffffffffffffffffffffffffffff82169050919050565b6000819050919050565b82818337600083830152505050565b60005b83811015612d0e578082015181840152602081019050612cf3565b83811115612d1d576000848401525b50505050565b6000612d2e82612cd7565b91506000821415612d4257612d41612df9565b5b600182039050919050565b60006002820490506001821680612d6557607f821691505b60208210811415612d7957612d78612e57565b5b50919050565b6000612d8a82612cd7565b91507fffffffffffffffffffffffffffffffffffffffffffffffffffffffffffffffff821415612dbd57612dbc612df9565b5b600182019050919050565b6000612dd382612cd7565b9150612dde83612cd7565b925082612dee57612ded612e28565b5b828206905092915050565b7f4e487b7100000000000000000000000000000000000000000000000000000000600052601160045260246000fd5b7f4e487b7100000000000000000000000000000000000000000000000000000000600052601260045260246000fd5b7f4e487b7100000000000000000000000000000000000000000000000000000000600052602260045260246000fd5b7f4e487b7100000000000000000000000000000000000000000000000000000000600052604160045260246000fd5b6000601f19601f8301169050919050565b612ecf81612c6d565b8114612eda57600080fd5b50565b612ee681612c7f565b8114612ef157600080fd5b50565b612efd81612c8b565b8114612f0857600080fd5b50565b612f1481612cd7565b8114612f1f57600080fd5b5056fea2646970667358221220d46eca8333bbbda70c7044fd259650861160a808254e17dbb8707a1043fec0e664736f6c63430008000033",
  "immutableReferences": {},
  "source": "\r\npragma solidity ^0.8.0;\r\n\r\nlibrary Address {\r\n    \r\n    function isContract(address account) internal view returns (bool) {\r\n        // This method relies on extcodesize, which returns 0 for contracts in\r\n        // construction, since the code is only stored at the end of the\r\n        // constructor execution.\r\n\r\n        uint256 size;\r\n        assembly {\r\n            size := extcodesize(account)\r\n        }\r\n        return size > 0;\r\n    }\r\n\r\n    \r\n    function sendValue(address payable recipient, uint256 amount) internal {\r\n        require(address(this).balance >= amount, \"Address: insufficient balance\");\r\n\r\n        (bool success, ) = recipient.call{value: amount}(\"\");\r\n        require(success, \"Address: unable to send value, recipient may have reverted\");\r\n    }\r\n\r\n   \r\n    function functionCall(address target, bytes memory data) internal returns (bytes memory) {\r\n        return functionCall(target, data, \"Address: low-level call failed\");\r\n    }\r\n\r\n   \r\n    function functionCall(\r\n        address target,\r\n        bytes memory data,\r\n        string memory errorMessage\r\n    ) internal returns (bytes memory) {\r\n        return functionCallWithValue(target, data, 0, errorMessage);\r\n    }\r\n\r\n    \r\n    function functionCallWithValue(\r\n        address target,\r\n        bytes memory data,\r\n        uint256 value\r\n    ) internal returns (bytes memory) {\r\n        return functionCallWithValue(target, data, value, \"Address: low-level call with value failed\");\r\n    }\r\n\r\n \r\n    function functionCallWithValue(\r\n        address target,\r\n        bytes memory data,\r\n        uint256 value,\r\n        string memory errorMessage\r\n    ) internal returns (bytes memory) {\r\n        require(address(this).balance >= value, \"Address: insufficient balance for call\");\r\n        require(isContract(target), \"Address: call to non-contract\");\r\n\r\n        (bool success, bytes memory returndata) = target.call{value: value}(data);\r\n        return verifyCallResult(success, returndata, errorMessage);\r\n    }\r\n\r\n    function functionStaticCall(address target, bytes memory data) internal view returns (bytes memory) {\r\n        return functionStaticCall(target, data, \"Address: low-level static call failed\");\r\n    }\r\n\r\n    \r\n    function functionStaticCall(\r\n        address target,\r\n        bytes memory data,\r\n        string memory errorMessage\r\n    ) internal view returns (bytes memory) {\r\n        require(isContract(target), \"Address: static call to non-contract\");\r\n\r\n        (bool success, bytes memory returndata) = target.staticcall(data);\r\n        return verifyCallResult(success, returndata, errorMessage);\r\n    }\r\n\r\n\r\n    function functionDelegateCall(address target, bytes memory data) internal returns (bytes memory) {\r\n        return functionDelegateCall(target, data, \"Address: low-level delegate call failed\");\r\n    }\r\n\r\n\r\n    function functionDelegateCall(\r\n        address target,\r\n        bytes memory data,\r\n        string memory errorMessage\r\n    ) internal returns (bytes memory) {\r\n        require(isContract(target), \"Address: delegate call to non-contract\");\r\n\r\n        (bool success, bytes memory returndata) = target.delegatecall(data);\r\n        return verifyCallResult(success, returndata, errorMessage);\r\n    }\r\n\r\n  \r\n    function verifyCallResult(\r\n        bool success,\r\n        bytes memory returndata,\r\n        string memory errorMessage\r\n    ) internal pure returns (bytes memory) {\r\n        if (success) {\r\n            return returndata;\r\n        } else {\r\n            // Look for revert reason and bubble it up if present\r\n            if (returndata.length > 0) {\r\n                // The easiest way to bubble the revert reason is using memory via assembly\r\n\r\n                assembly {\r\n                    let returndata_size := mload(returndata)\r\n                    revert(add(32, returndata), returndata_size)\r\n                }\r\n            } else {\r\n                revert(errorMessage);\r\n            }\r\n        }\r\n    }\r\n}\r\n\r\n\r\n\r\nlibrary Strings {\r\n    \r\n    bytes16 private constant _HEX_SYMBOLS = \"0123456789abcdef\";\r\n\r\n\r\n    function toString(uint256 value) internal pure returns (string memory) {\r\n        // Inspired by OraclizeAPI's implementation - MIT licence\r\n        // https://github.com/oraclize/ethereum-api/blob/b42146b063c7d6ee1358846c198246239e9360e8/oraclizeAPI_0.4.25.sol\r\n\r\n        if (value == 0) {\r\n            return \"0\";\r\n        }\r\n        uint256 temp = value;\r\n        uint256 digits;\r\n        while (temp != 0) {\r\n            digits++;\r\n            temp /= 10;\r\n        }\r\n        bytes memory buffer = new bytes(digits);\r\n        while (value != 0) {\r\n            digits -= 1;\r\n            buffer[digits] = bytes1(uint8(48 + uint256(value % 10)));\r\n            value /= 10;\r\n        }\r\n        return string(buffer);\r\n    }\r\n\r\n\r\n    function toHexString(uint256 value) internal pure returns (string memory) {\r\n        if (value == 0) {\r\n            return \"0x00\";\r\n        }\r\n        uint256 temp = value;\r\n        uint256 length = 0;\r\n        while (temp != 0) {\r\n            length++;\r\n            temp >>= 8;\r\n        }\r\n        return toHexString(value, length);\r\n    }\r\n\r\n    function toHexString(uint256 value, uint256 length) internal pure returns (string memory) {\r\n        bytes memory buffer = new bytes(2 * length + 2);\r\n        buffer[0] = \"0\";\r\n        buffer[1] = \"x\";\r\n        for (uint256 i = 2 * length + 1; i > 1; --i) {\r\n            buffer[i] = _HEX_SYMBOLS[value & 0xf];\r\n            value >>= 4;\r\n        }\r\n        require(value == 0, \"Strings: hex length insufficient\");\r\n        return string(buffer);\r\n    }\r\n}\r\n\r\nabstract contract Context {\r\n    function _msgSender() internal view virtual returns (address) {\r\n        return msg.sender;\r\n    }\r\n\r\n    function _msgData() internal view virtual returns (bytes calldata) {\r\n        return msg.data;\r\n    }\r\n}\r\n\r\ninterface IERC721Receiver {\r\n    function onERC721Received(\r\n        address operator,\r\n        address from,\r\n        uint256 tokenId,\r\n        bytes calldata data\r\n    ) external returns (bytes4);\r\n}\r\n\r\ninterface IERC165 {\r\n    function supportsInterface(bytes4 interfaceId) external view returns (bool);\r\n}\r\n\r\nabstract contract ERC165 is IERC165 {\r\n    function supportsInterface(bytes4 interfaceId) public view virtual override returns (bool) {\r\n        return interfaceId == type(IERC165).interfaceId;\r\n    }\r\n}\r\n\r\n\r\ninterface IERC721 is IERC165 {\r\n    event Transfer(address indexed from, address indexed to, uint256 indexed tokenId);\r\n    event Approval(address indexed owner, address indexed approved, uint256 indexed tokenId);\r\n    event ApprovalForAll(address indexed owner, address indexed operator, bool approved);\r\n\r\n    function balanceOf(address owner) external view returns (uint256 balance);\r\n    function ownerOf(uint256 tokenId) external view returns (address owner);\r\n    function safeTransferFrom(\r\n        address from,\r\n        address to,\r\n        uint256 tokenId\r\n    ) external;\r\n    function transferFrom(\r\n        address from,\r\n        address to,\r\n        uint256 tokenId\r\n    ) external;\r\n\r\n    function approve(address to, uint256 tokenId) external;\r\n    function getApproved(uint256 tokenId) external view returns (address operator);\r\n    function setApprovalForAll(address operator, bool _approved) external;\r\n    function isApprovedForAll(address owner, address operator) external view returns (bool);\r\n    function safeTransferFrom(\r\n        address from,\r\n        address to,\r\n        uint256 tokenId,\r\n        bytes calldata data\r\n    ) external;\r\n}\r\n\r\ninterface IERC721Metadata is IERC721 {\r\n    function name() external view returns (string memory);\r\n    function symbol() external view returns (string memory);\r\n    function tokenURI(uint256 tokenId) external view returns (string memory);\r\n}\r\n\r\n\r\ncontract ERC721 is Context, ERC165, IERC721{\r\n    using Address for address;\r\n    \r\n    // Token name\r\n    string _name;\r\n\r\n    // Token symbol\r\n    string _symbol;\r\n\r\n    // Mapping from token ID to owner address\r\n    mapping(uint256 => address)  _owners;\r\n\r\n    // Mapping owner address to token count\r\n    mapping(address => uint256)  _balances;\r\n\r\n    // Mapping from token ID to approved address\r\n    mapping(uint256 => address)  _tokenApprovals;\r\n\r\n    // Mapping from owner to operator approvals\r\n    mapping(address => mapping(address => bool)) _operatorApprovals;\r\n\r\n    /**\r\n     * @dev Initializes the contract by setting a `name` and a `symbol` to the token collection.\r\n     */\r\n    constructor(string memory name_, string memory symbol_) {\r\n        _name = name_;\r\n        _symbol = symbol_;\r\n    }\r\n\r\n    /**\r\n     * @dev See {IERC165-supportsInterface}.\r\n     */\r\n    function supportsInterface(bytes4 interfaceId) public view virtual override(ERC165, IERC165) returns (bool) {\r\n        return\r\n            interfaceId == type(IERC721).interfaceId ||\r\n            interfaceId == type(IERC721Metadata).interfaceId ||\r\n            super.supportsInterface(interfaceId);\r\n    }\r\n\r\n    /**\r\n     * @dev See {IERC721-balanceOf}.\r\n     */\r\n    function balanceOf(address owner) public view virtual override returns (uint256) {\r\n        require(owner != address(0), \"ERC721: balance query for the zero address\");\r\n        return _balances[owner];\r\n    }\r\n\r\n    /**\r\n     * @dev See {IERC721-ownerOf}.\r\n     */\r\n    function ownerOf(uint256 tokenId) public view virtual override returns (address) {\r\n        address owner = _owners[tokenId];\r\n        require(owner != address(0), \"ERC721: owner query for nonexistent token\");\r\n        return owner;\r\n    }\r\n\r\n   \r\n\r\n    /**\r\n     * @dev See {IERC721-approve}.\r\n     */\r\n    function approve(address to, uint256 tokenId) public virtual override {\r\n        address owner = ERC721.ownerOf(tokenId);\r\n        require(to != owner, \"ERC721: approval to current owner\");\r\n\r\n        require(\r\n            _msgSender() == owner || isApprovedForAll(owner, _msgSender()),\r\n            \"ERC721: approve caller is not owner nor approved for all\"\r\n        );\r\n\r\n        _approve(to, tokenId);\r\n    }\r\n\r\n    /**\r\n     * @dev See {IERC721-getApproved}.\r\n     */\r\n    function getApproved(uint256 tokenId) public view virtual override returns (address) {\r\n        require(_exists(tokenId), \"ERC721: approved query for nonexistent token\");\r\n\r\n        return _tokenApprovals[tokenId];\r\n    }\r\n\r\n    /**\r\n     * @dev See {IERC721-setApprovalForAll}.\r\n     */\r\n    function setApprovalForAll(address operator, bool approved) public virtual override {\r\n        require(operator != _msgSender(), \"ERC721: approve to caller\");\r\n\r\n        _operatorApprovals[_msgSender()][operator] = approved;\r\n        emit ApprovalForAll(_msgSender(), operator, approved);\r\n    }\r\n\r\n    /**\r\n     * @dev See {IERC721-isApprovedForAll}.\r\n     */\r\n    function isApprovedForAll(address owner, address operator) public view virtual override returns (bool) {\r\n        return _operatorApprovals[owner][operator];\r\n    }\r\n\r\n    /**\r\n     * @dev See {IERC721-transferFrom}.\r\n     */\r\n    function transferFrom(\r\n        address from,\r\n        address to,\r\n        uint256 tokenId\r\n    ) public virtual override {\r\n        //solhint-disable-next-line max-line-length\r\n        require(_isApprovedOrOwner(_msgSender(), tokenId), \"ERC721: transfer caller is not owner nor approved\");\r\n\r\n        _transfer(from, to, tokenId);\r\n    }\r\n\r\n    /**\r\n     * @dev See {IERC721-safeTransferFrom}.\r\n     */\r\n    function safeTransferFrom(\r\n        address from,\r\n        address to,\r\n        uint256 tokenId\r\n    ) public virtual override {\r\n        safeTransferFrom(from, to, tokenId, \"\");\r\n    }\r\n\r\n    /**\r\n     * @dev See {IERC721-safeTransferFrom}.\r\n     */\r\n    function safeTransferFrom(\r\n        address from,\r\n        address to,\r\n        uint256 tokenId,\r\n        bytes memory _data\r\n    ) public virtual override {\r\n        require(_isApprovedOrOwner(_msgSender(), tokenId), \"ERC721: transfer caller is not owner nor approved\");\r\n        _safeTransfer(from, to, tokenId, _data);\r\n    }\r\n\r\n    function _safeTransfer(\r\n        address from,\r\n        address to,\r\n        uint256 tokenId,\r\n        bytes memory _data\r\n    ) internal virtual {\r\n        _transfer(from, to, tokenId);\r\n        require(_checkOnERC721Received(from, to, tokenId, _data), \"ERC721: transfer to non ERC721Receiver implementer\");\r\n    }\r\n\r\n    function _exists(uint256 tokenId) internal view virtual returns (bool) {\r\n        return _owners[tokenId] != address(0);\r\n    }\r\n\r\n    function _isApprovedOrOwner(address spender, uint256 tokenId) internal view virtual returns (bool) {\r\n        require(_exists(tokenId), \"ERC721: operator query for nonexistent token\");\r\n        address owner = ERC721.ownerOf(tokenId);\r\n        return (spender == owner || getApproved(tokenId) == spender || isApprovedForAll(owner, spender));\r\n    }\r\n\r\n    function _safeMint(address to, uint256 tokenId) internal virtual {\r\n        _safeMint(to, tokenId, \"\");\r\n    }\r\n\r\n    function _safeMint(\r\n        address to,\r\n        uint256 tokenId,\r\n        bytes memory _data\r\n    ) internal virtual {\r\n        _mint(to, tokenId);\r\n        require(\r\n            _checkOnERC721Received(address(0), to, tokenId, _data),\r\n            \"ERC721: transfer to non ERC721Receiver implementer\"\r\n        );\r\n    }\r\n\r\n    function _mint(address to, uint256 tokenId) internal virtual {\r\n        require(to != address(0), \"ERC721: mint to the zero address\");\r\n        require(!_exists(tokenId), \"ERC721: token already minted\");\r\n        //      !_owners[tokenId] \r\n        \r\n        _beforeTokenTransfer(address(0), to, tokenId);\r\n\r\n        _balances[to] += 1;\r\n        _owners[tokenId] = to;\r\n\r\n        emit Transfer(address(0), to, tokenId);\r\n    }\r\n\r\n    function _burn(uint256 tokenId) internal virtual {\r\n        address owner = ERC721.ownerOf(tokenId);\r\n\r\n        _beforeTokenTransfer(owner, address(0), tokenId);\r\n\r\n        // Clear approvals\r\n        _approve(address(0), tokenId);\r\n\r\n        _balances[owner] -= 1;\r\n        delete _owners[tokenId];\r\n\r\n        emit Transfer(owner, address(0), tokenId);\r\n    }\r\n\r\n    function _transfer(\r\n        address from,\r\n        address to,\r\n        uint256 tokenId\r\n    ) internal virtual {\r\n        require(ERC721.ownerOf(tokenId) == from, \"ERC721: transfer of token that is not own\");\r\n        require(to != address(0), \"ERC721: transfer to the zero address\");\r\n\r\n        _beforeTokenTransfer(from, to, tokenId);\r\n\r\n        // Clear approvals from the previous owner\r\n        _approve(address(0), tokenId);\r\n\r\n        _balances[from] -= 1;\r\n        _balances[to] += 1;\r\n        _owners[tokenId] = to;\r\n\r\n        emit Transfer(from, to, tokenId);\r\n    }\r\n\r\n    /**\r\n     * @dev Approve `to` to operate on `tokenId`\r\n     *\r\n     * Emits a {Approval} event.\r\n     */\r\n    function _approve(address to, uint256 tokenId) internal virtual {\r\n        _tokenApprovals[tokenId] = to;\r\n        emit Approval(ERC721.ownerOf(tokenId), to, tokenId);\r\n    }\r\n\r\n    function _checkOnERC721Received(\r\n        address from,\r\n        address to,\r\n        uint256 tokenId,\r\n        bytes memory _data\r\n    ) private returns (bool) {\r\n        if (to.isContract()) {\r\n            try IERC721Receiver(to).onERC721Received(_msgSender(), from, tokenId, _data) returns (bytes4 retval) {\r\n                return retval == IERC721Receiver.onERC721Received.selector;\r\n            } catch (bytes memory reason) {\r\n                if (reason.length == 0) {\r\n                    revert(\"ERC721: transfer to non ERC721Receiver implementer\");\r\n                } else {\r\n                    assembly {\r\n                        revert(add(32, reason), mload(reason))\r\n                    }\r\n                }\r\n            }\r\n        } else {\r\n            return true;\r\n        }\r\n    }\r\n\r\n    function _beforeTokenTransfer(\r\n        address from,\r\n        address to,\r\n        uint256 tokenId\r\n    ) internal virtual {}\r\n}\r\n\r\ncontract MyNFT is ERC721,IERC721Metadata{\r\n    using Strings for uint256;\r\n    uint256 startOfSales;\r\n    uint256 endOfSales;\r\n    uint256 priceOfNFT;\r\n    uint256 tokenIds;\r\n    uint256 totalSupplyCap;\r\n    string  baseURI;\r\n    address owner;\r\n\r\n    constructor() ERC721(\"My NFT\", \"MNT\"){\r\n            owner = msg.sender;\r\n            totalSupplyCap = 3;\r\n      }\r\n    \r\n    modifier onlyOwner(){\r\n        require(msg.sender == owner,\"only Onwer is Authorized to call\");\r\n            _;\r\n    }\r\n\r\n     /**\r\n     * @dev See {IERC721Metadata-name}.\r\n     */\r\n    function name() public view virtual override returns (string memory) {\r\n        return _name;\r\n    }\r\n\r\n    /**\r\n     * @dev See {IERC721Metadata-symbol}.\r\n     */\r\n    function symbol() public view virtual override returns (string memory) {\r\n        return _symbol;\r\n    }\r\n\r\n    /**\r\n     * @dev See {IERC721Metadata-tokenURI}.\r\n     */\r\n    function tokenURI(uint256 tokenId) public view virtual override returns (string memory) {\r\n        require(_exists(tokenId), \"ERC721Metadata: URI query for nonexistent token\");\r\n\r\n        return bytes(baseURI).length > 0 ? string(abi.encodePacked(baseURI, tokenId.toString())) : \"\";\r\n    }\r\n\r\n    function setBaseURI(string memory setURI) external virtual returns (string memory) {\r\n        return baseURI = setURI;\r\n    }\r\n    \r\n    function startSales(uint256 setPrice)external onlyOwner{\r\n        startOfSales = block.timestamp; \r\n        endOfSales = startOfSales + 30 days;\r\n        \r\n        priceOfNFT = setPrice * (10**18);\r\n    }\r\n    \r\n    function newPriceSet(uint256 newPrice)external onlyOwner{\r\n        priceOfNFT = newPrice;\r\n    }\r\n    \r\n    \r\n    function buyNFT() external payable{\r\n        require(block.timestamp >= startOfSales && startOfSales !=0,\"Sales has not started \");\r\n        require(block.timestamp <= endOfSales,\"Sales has Ended\");\r\n        require(totalSupplyCap > 0 ,\" NFTs Sold out\");\r\n        require(msg.value == priceOfNFT,\" Pls Pay exact Price | you can buy 1 NFT per call\");\r\n      \r\n        tokenIds++;\r\n        _safeMint(msg.sender, tokenIds);\r\n        totalSupplyCap--;\r\n       \r\n    }\r\n\r\n}",
  "sourcePath": "E:\\Q3-Assignmetn4-ERC721-NFT\\contracts\\MyNFT.sol",
  "compiler": {
    "name": "solc",
    "version": "0.8.0+commit.c7dfd78e.Emscripten.clang"
  },
  "schemaVersion": "3.4.3",
  "updatedAt": "2021-09-10T22:19:41.420Z",
  "networkType": "ethereum",
  "devdoc": {
    "kind": "dev",
    "methods": {
      "approve(address,uint256)": {
        "details": "See {IERC721-approve}."
      },
      "balanceOf(address)": {
        "details": "See {IERC721-balanceOf}."
      },
      "getApproved(uint256)": {
        "details": "See {IERC721-getApproved}."
      },
      "isApprovedForAll(address,address)": {
        "details": "See {IERC721-isApprovedForAll}."
      },
      "name()": {
        "details": "See {IERC721Metadata-name}."
      },
      "ownerOf(uint256)": {
        "details": "See {IERC721-ownerOf}."
      },
      "safeTransferFrom(address,address,uint256)": {
        "details": "See {IERC721-safeTransferFrom}."
      },
      "safeTransferFrom(address,address,uint256,bytes)": {
        "details": "See {IERC721-safeTransferFrom}."
      },
      "setApprovalForAll(address,bool)": {
        "details": "See {IERC721-setApprovalForAll}."
      },
      "supportsInterface(bytes4)": {
        "details": "See {IERC165-supportsInterface}."
      },
      "symbol()": {
        "details": "See {IERC721Metadata-symbol}."
      },
      "tokenURI(uint256)": {
        "details": "See {IERC721Metadata-tokenURI}."
      },
      "transferFrom(address,address,uint256)": {
        "details": "See {IERC721-transferFrom}."
      }
    },
    "version": 1
  },
  "userdoc": {
    "kind": "user",
    "methods": {},
    "version": 1
  }
}